{
    "contractName": "NFTMarketplace",
    "abi": [
        {
            "inputs": [],
            "stateMutability": "nonpayable",
            "type": "constructor"
        },
        {
            "inputs": [
                {
                    "internalType": "address",
                    "name": "sender",
                    "type": "address"
                },
                {
                    "internalType": "uint256",
                    "name": "tokenId",
                    "type": "uint256"
                },
                {
                    "internalType": "address",
                    "name": "owner",
                    "type": "address"
                }
            ],
            "name": "ERC721IncorrectOwner",
            "type": "error"
        },
        {
            "inputs": [
                {
                    "internalType": "address",
                    "name": "operator",
                    "type": "address"
                },
                {
                    "internalType": "uint256",
                    "name": "tokenId",
                    "type": "uint256"
                }
            ],
            "name": "ERC721InsufficientApproval",
            "type": "error"
        },
        {
            "inputs": [
                {
                    "internalType": "address",
                    "name": "approver",
                    "type": "address"
                }
            ],
            "name": "ERC721InvalidApprover",
            "type": "error"
        },
        {
            "inputs": [
                {
                    "internalType": "address",
                    "name": "operator",
                    "type": "address"
                }
            ],
            "name": "ERC721InvalidOperator",
            "type": "error"
        },
        {
            "inputs": [
                {
                    "internalType": "address",
                    "name": "owner",
                    "type": "address"
                }
            ],
            "name": "ERC721InvalidOwner",
            "type": "error"
        },
        {
            "inputs": [
                {
                    "internalType": "address",
                    "name": "receiver",
                    "type": "address"
                }
            ],
            "name": "ERC721InvalidReceiver",
            "type": "error"
        },
        {
            "inputs": [
                {
                    "internalType": "address",
                    "name": "sender",
                    "type": "address"
                }
            ],
            "name": "ERC721InvalidSender",
            "type": "error"
        },
        {
            "inputs": [
                {
                    "internalType": "uint256",
                    "name": "tokenId",
                    "type": "uint256"
                }
            ],
            "name": "ERC721NonexistentToken",
            "type": "error"
        },
        {
            "inputs": [],
            "name": "NFTMarketplace__Incorrect_BuyingPrice",
            "type": "error"
        },
        {
            "inputs": [],
            "name": "NFTMarketplace__Incorrect_ListingPrice",
            "type": "error"
        },
        {
            "inputs": [],
            "name": "NFTMarketplace__Item_NotForSale",
            "type": "error"
        },
        {
            "inputs": [],
            "name": "NFTMarketplace__OnlyOwnerCan_ReSell",
            "type": "error"
        },
        {
            "inputs": [],
            "name": "NFTMarketplace__OnlyOwnerCan_UpdateListingPrice",
            "type": "error"
        },
        {
            "inputs": [],
            "name": "NFTMarketplace__PriceCannot_BeZero",
            "type": "error"
        },
        {
            "inputs": [],
            "name": "NFTMarketplace__TransferFailed",
            "type": "error"
        },
        {
            "anonymous": false,
            "inputs": [
                {
                    "indexed": true,
                    "internalType": "address",
                    "name": "owner",
                    "type": "address"
                },
                {
                    "indexed": true,
                    "internalType": "address",
                    "name": "approved",
                    "type": "address"
                },
                {
                    "indexed": true,
                    "internalType": "uint256",
                    "name": "tokenId",
                    "type": "uint256"
                }
            ],
            "name": "Approval",
            "type": "event"
        },
        {
            "anonymous": false,
            "inputs": [
                {
                    "indexed": true,
                    "internalType": "address",
                    "name": "owner",
                    "type": "address"
                },
                {
                    "indexed": true,
                    "internalType": "address",
                    "name": "operator",
                    "type": "address"
                },
                {
                    "indexed": false,
                    "internalType": "bool",
                    "name": "approved",
                    "type": "bool"
                }
            ],
            "name": "ApprovalForAll",
            "type": "event"
        },
        {
            "anonymous": false,
            "inputs": [
                {
                    "indexed": false,
                    "internalType": "uint256",
                    "name": "_fromTokenId",
                    "type": "uint256"
                },
                {
                    "indexed": false,
                    "internalType": "uint256",
                    "name": "_toTokenId",
                    "type": "uint256"
                }
            ],
            "name": "BatchMetadataUpdate",
            "type": "event"
        },
        {
            "anonymous": false,
            "inputs": [
                {
                    "indexed": true,
                    "internalType": "uint256",
                    "name": "tokenId",
                    "type": "uint256"
                },
                {
                    "indexed": true,
                    "internalType": "address",
                    "name": "owner",
                    "type": "address"
                },
                {
                    "indexed": true,
                    "internalType": "address",
                    "name": "seller",
                    "type": "address"
                },
                {
                    "indexed": false,
                    "internalType": "uint256",
                    "name": "price",
                    "type": "uint256"
                },
                {
                    "indexed": false,
                    "internalType": "bool",
                    "name": "sold",
                    "type": "bool"
                }
            ],
            "name": "MarketItemCreated",
            "type": "event"
        },
        {
            "anonymous": false,
            "inputs": [
                {
                    "indexed": false,
                    "internalType": "uint256",
                    "name": "_tokenId",
                    "type": "uint256"
                }
            ],
            "name": "MetadataUpdate",
            "type": "event"
        },
        {
            "anonymous": false,
            "inputs": [
                {
                    "indexed": true,
                    "internalType": "address",
                    "name": "from",
                    "type": "address"
                },
                {
                    "indexed": true,
                    "internalType": "address",
                    "name": "to",
                    "type": "address"
                },
                {
                    "indexed": true,
                    "internalType": "uint256",
                    "name": "tokenId",
                    "type": "uint256"
                }
            ],
            "name": "Transfer",
            "type": "event"
        },
        {
            "inputs": [
                {
                    "internalType": "address",
                    "name": "to",
                    "type": "address"
                },
                {
                    "internalType": "uint256",
                    "name": "tokenId",
                    "type": "uint256"
                }
            ],
            "name": "approve",
            "outputs": [],
            "stateMutability": "nonpayable",
            "type": "function"
        },
        {
            "inputs": [
                {
                    "internalType": "address",
                    "name": "owner",
                    "type": "address"
                }
            ],
            "name": "balanceOf",
            "outputs": [
                {
                    "internalType": "uint256",
                    "name": "",
                    "type": "uint256"
                }
            ],
            "stateMutability": "view",
            "type": "function"
        },
        {
            "inputs": [
                {
                    "internalType": "string",
                    "name": "tokenURI",
                    "type": "string"
                },
                {
                    "internalType": "uint256",
                    "name": "price",
                    "type": "uint256"
                }
            ],
            "name": "createToken",
            "outputs": [
                {
                    "internalType": "uint256",
                    "name": "",
                    "type": "uint256"
                }
            ],
            "stateMutability": "payable",
            "type": "function"
        },
        {
            "inputs": [
                {
                    "internalType": "uint256",
                    "name": "tokenId",
                    "type": "uint256"
                }
            ],
            "name": "executeSale",
            "outputs": [],
            "stateMutability": "payable",
            "type": "function"
        },
        {
            "inputs": [],
            "name": "getAllNFTs",
            "outputs": [
                {
                    "components": [
                        {
                            "internalType": "uint256",
                            "name": "tokenId",
                            "type": "uint256"
                        },
                        {
                            "internalType": "address payable",
                            "name": "owner",
                            "type": "address"
                        },
                        {
                            "internalType": "address payable",
                            "name": "seller",
                            "type": "address"
                        },
                        {
                            "internalType": "uint256",
                            "name": "price",
                            "type": "uint256"
                        },
                        {
                            "internalType": "bool",
                            "name": "sold",
                            "type": "bool"
                        }
                    ],
                    "internalType": "struct NFTMarketplace.MarketItem[]",
                    "name": "",
                    "type": "tuple[]"
                }
            ],
            "stateMutability": "view",
            "type": "function"
        },
        {
            "inputs": [
                {
                    "internalType": "uint256",
                    "name": "tokenId",
                    "type": "uint256"
                }
            ],
            "name": "getApproved",
            "outputs": [
                {
                    "internalType": "address",
                    "name": "",
                    "type": "address"
                }
            ],
            "stateMutability": "view",
            "type": "function"
        },
        {
            "inputs": [],
            "name": "getCurrentTokenId",
            "outputs": [
                {
                    "internalType": "uint256",
                    "name": "",
                    "type": "uint256"
                }
            ],
            "stateMutability": "view",
            "type": "function"
        },
        {
            "inputs": [
                {
                    "internalType": "uint256",
                    "name": "tokenId",
                    "type": "uint256"
                }
            ],
            "name": "getItemForTokenId",
            "outputs": [
                {
                    "components": [
                        {
                            "internalType": "uint256",
                            "name": "tokenId",
                            "type": "uint256"
                        },
                        {
                            "internalType": "address payable",
                            "name": "owner",
                            "type": "address"
                        },
                        {
                            "internalType": "address payable",
                            "name": "seller",
                            "type": "address"
                        },
                        {
                            "internalType": "uint256",
                            "name": "price",
                            "type": "uint256"
                        },
                        {
                            "internalType": "bool",
                            "name": "sold",
                            "type": "bool"
                        }
                    ],
                    "internalType": "struct NFTMarketplace.MarketItem",
                    "name": "",
                    "type": "tuple"
                }
            ],
            "stateMutability": "view",
            "type": "function"
        },
        {
            "inputs": [],
            "name": "getItemsSold",
            "outputs": [
                {
                    "internalType": "uint256",
                    "name": "",
                    "type": "uint256"
                }
            ],
            "stateMutability": "view",
            "type": "function"
        },
        {
            "inputs": [],
            "name": "getListingPrice",
            "outputs": [
                {
                    "internalType": "uint256",
                    "name": "",
                    "type": "uint256"
                }
            ],
            "stateMutability": "view",
            "type": "function"
        },
        {
            "inputs": [
                {
                    "internalType": "address",
                    "name": "owner",
                    "type": "address"
                },
                {
                    "internalType": "address",
                    "name": "operator",
                    "type": "address"
                }
            ],
            "name": "isApprovedForAll",
            "outputs": [
                {
                    "internalType": "bool",
                    "name": "",
                    "type": "bool"
                }
            ],
            "stateMutability": "view",
            "type": "function"
        },
        {
            "inputs": [],
            "name": "name",
            "outputs": [
                {
                    "internalType": "string",
                    "name": "",
                    "type": "string"
                }
            ],
            "stateMutability": "view",
            "type": "function"
        },
        {
            "inputs": [
                {
                    "internalType": "uint256",
                    "name": "tokenId",
                    "type": "uint256"
                }
            ],
            "name": "ownerOf",
            "outputs": [
                {
                    "internalType": "address",
                    "name": "",
                    "type": "address"
                }
            ],
            "stateMutability": "view",
            "type": "function"
        },
        {
            "inputs": [
                {
                    "internalType": "uint256",
                    "name": "tokenId",
                    "type": "uint256"
                },
                {
                    "internalType": "uint256",
                    "name": "price",
                    "type": "uint256"
                }
            ],
            "name": "reSellNft",
            "outputs": [],
            "stateMutability": "payable",
            "type": "function"
        },
        {
            "inputs": [
                {
                    "internalType": "address",
                    "name": "from",
                    "type": "address"
                },
                {
                    "internalType": "address",
                    "name": "to",
                    "type": "address"
                },
                {
                    "internalType": "uint256",
                    "name": "tokenId",
                    "type": "uint256"
                }
            ],
            "name": "safeTransferFrom",
            "outputs": [],
            "stateMutability": "nonpayable",
            "type": "function"
        },
        {
            "inputs": [
                {
                    "internalType": "address",
                    "name": "from",
                    "type": "address"
                },
                {
                    "internalType": "address",
                    "name": "to",
                    "type": "address"
                },
                {
                    "internalType": "uint256",
                    "name": "tokenId",
                    "type": "uint256"
                },
                {
                    "internalType": "bytes",
                    "name": "data",
                    "type": "bytes"
                }
            ],
            "name": "safeTransferFrom",
            "outputs": [],
            "stateMutability": "nonpayable",
            "type": "function"
        },
        {
            "inputs": [
                {
                    "internalType": "address",
                    "name": "operator",
                    "type": "address"
                },
                {
                    "internalType": "bool",
                    "name": "approved",
                    "type": "bool"
                }
            ],
            "name": "setApprovalForAll",
            "outputs": [],
            "stateMutability": "nonpayable",
            "type": "function"
        },
        {
            "inputs": [
                {
                    "internalType": "bytes4",
                    "name": "interfaceId",
                    "type": "bytes4"
                }
            ],
            "name": "supportsInterface",
            "outputs": [
                {
                    "internalType": "bool",
                    "name": "",
                    "type": "bool"
                }
            ],
            "stateMutability": "view",
            "type": "function"
        },
        {
            "inputs": [],
            "name": "symbol",
            "outputs": [
                {
                    "internalType": "string",
                    "name": "",
                    "type": "string"
                }
            ],
            "stateMutability": "view",
            "type": "function"
        },
        {
            "inputs": [
                {
                    "internalType": "uint256",
                    "name": "tokenId",
                    "type": "uint256"
                }
            ],
            "name": "tokenURI",
            "outputs": [
                {
                    "internalType": "string",
                    "name": "",
                    "type": "string"
                }
            ],
            "stateMutability": "view",
            "type": "function"
        },
        {
            "inputs": [
                {
                    "internalType": "address",
                    "name": "from",
                    "type": "address"
                },
                {
                    "internalType": "address",
                    "name": "to",
                    "type": "address"
                },
                {
                    "internalType": "uint256",
                    "name": "tokenId",
                    "type": "uint256"
                }
            ],
            "name": "transferFrom",
            "outputs": [],
            "stateMutability": "nonpayable",
            "type": "function"
        },
        {
            "inputs": [
                {
                    "internalType": "uint256",
                    "name": "newPrice",
                    "type": "uint256"
                }
            ],
            "name": "updateListingPrice",
            "outputs": [],
            "stateMutability": "nonpayable",
            "type": "function"
        }
    ],
    "bytecode": "60a0604052662386f26fc1000060095534801561001a575f80fd5b506040518060400160405280600e81526020016d4e46544d61726b6574706c61636560901b815250604051806040016040528060048152602001634e46544d60e01b815250815f908161006d919061011e565b50600161007a828261011e565b505033608052506101dd565b634e487b7160e01b5f52604160045260245ffd5b600181811c908216806100ae57607f821691505b6020821081036100cc57634e487b7160e01b5f52602260045260245ffd5b50919050565b601f82111561011957805f5260205f20601f840160051c810160208510156100f75750805b601f840160051c820191505b81811015610116575f8155600101610103565b50505b505050565b81516001600160401b0381111561013757610137610086565b61014b81610145845461009a565b846100d2565b602080601f83116001811461017e575f84156101675750858301515b5f19600386901b1c1916600185901b1785556101d5565b5f85815260208120601f198616915b828110156101ac5788860151825594840194600190910190840161018d565b50858210156101c957878501515f19600388901b60f8161c191681555b505060018460011b0185555b505050505050565b608051611b566101fc5f395f818161089e01526109a90152611b565ff3fe608060405260043610610131575f3560e01c806370a08231116100a8578063ae677aa31161006d578063ae677aa3146103ae578063b88d4fde146103cd578063c4b15141146103ec578063c87b56dd14610400578063e0391b091461041f578063e985e9c514610440575f80fd5b806370a082311461033657806372b3b6201461035557806395d89b41146103685780639b1225c41461037c578063a22cb4651461038f575f80fd5b806312e85585116100f957806312e855851461029457806323b872dd146102b257806342842e0e146102d157806356189236146102f05780636352211e146103045780636b51c17114610323575f80fd5b806301ffc9a71461013557806306fdde0314610169578063081812fc1461018a578063095ea7b3146101c15780630979b754146101e2575b5f80fd5b348015610140575f80fd5b5061015461014f36600461159b565b61045f565b60405190151581526020015b60405180910390f35b348015610174575f80fd5b5061017d610489565b60405161016091906115e4565b348015610195575f80fd5b506101a96101a43660046115f6565b610518565b6040516001600160a01b039091168152602001610160565b3480156101cc575f80fd5b506101e06101db366004611628565b61053f565b005b3480156101ed575f80fd5b506102876101fc3660046115f6565b6040805160a0810182525f80825260208201819052918101829052606081018290526080810191909152505f908152600a6020908152604091829020825160a0810184528154815260018201546001600160a01b03908116938201939093526002820154909216928201929092526003820154606082015260049091015460ff161515608082015290565b6040516101609190611690565b34801561029f575f80fd5b506009545b604051908152602001610160565b3480156102bd575f80fd5b506101e06102cc36600461169e565b61054e565b3480156102dc575f80fd5b506101e06102eb36600461169e565b6105dc565b3480156102fb575f80fd5b506007546102a4565b34801561030f575f80fd5b506101a961031e3660046115f6565b6105fb565b6101e06103313660046116d7565b610605565b348015610341575f80fd5b506102a46103503660046116f7565b6106da565b6102a4610363366004611797565b61071f565b348015610373575f80fd5b5061017d6107ac565b6101e061038a3660046115f6565b6107bb565b34801561039a575f80fd5b506101e06103a93660046117ec565b610993565b3480156103b9575f80fd5b506101e06103c83660046115f6565b61099e565b3480156103d8575f80fd5b506101e06103e7366004611825565b610a0c565b3480156103f7575f80fd5b506008546102a4565b34801561040b575f80fd5b5061017d61041a3660046115f6565b610a23565b34801561042a575f80fd5b50610433610b2e565b604051610160919061189c565b34801561044b575f80fd5b5061015461045a3660046118e9565b610c3c565b5f6001600160e01b03198216632483248360e11b1480610483575061048382610c69565b92915050565b60605f80546104979061191a565b80601f01602080910402602001604051908101604052809291908181526020018280546104c39061191a565b801561050e5780601f106104e55761010080835404028352916020019161050e565b820191905f5260205f20905b8154815290600101906020018083116104f157829003601f168201915b5050505050905090565b5f61052282610cb8565b505f828152600460205260409020546001600160a01b0316610483565b61054a828233610cf0565b5050565b6001600160a01b03821661057c57604051633250574960e11b81525f60048201526024015b60405180910390fd5b5f610588838333610cfd565b9050836001600160a01b0316816001600160a01b0316146105d6576040516364283d7b60e01b81526001600160a01b0380861660048301526024820184905282166044820152606401610573565b50505050565b6105f683838360405180602001604052805f815250610a0c565b505050565b5f61048382610cb8565b5f828152600a60205260409020600201546001600160a01b031633811461063f5760405163ab16e7a160e01b815260040160405180910390fd5b600954341461066157604051632b623a5b60e01b815260040160405180910390fd5b815f03610681576040516315e5f66f60e01b815260040160405180910390fd5b5f838152600a6020526040902060048101805460ff191690556003810183905560010180546001600160a01b031916309081179091556106c390339085610def565b60016008546106d29190611960565b600855505050565b5f6001600160a01b038216610704576040516322718ad960e21b81525f6004820152602401610573565b506001600160a01b03165f9081526003602052604090205490565b5f815f03610740576040516315e5f66f60e01b815260040160405180910390fd5b600954341461076257604051632b623a5b60e01b815260040160405180910390fd5b61076e33600754610e9c565b61077a60075484610efd565b61078660075483610f4c565b600754610794906001611973565b60078190556107a590600190611960565b9392505050565b6060600180546104979061191a565b5f818152600a6020526040902060038101546002909101546001600160a01b03163482146107fc5760405163c3ce3ad760e01b815260040160405180910390fd5b5f838152600a602052604090206004015460ff161561082e5760405163a1a36e2960e01b815260040160405180910390fd5b5f838152600a60205260409020600281018054336001600160a01b0319918216811790925560048301805460ff191660019081179091559283018054909116909117905560085461087e91611973565b60085561088c303385610def565b6009546040515f916001600160a01b037f000000000000000000000000000000000000000000000000000000000000000016918381818185875af1925050503d805f81146108f5576040519150601f19603f3d011682016040523d82523d5f602084013e6108fa565b606091505b505090508061091c5760405163397c7e8f60e21b815260040160405180910390fd5b5f826001600160a01b0316846040515f6040518083038185875af1925050503d805f8114610965576040519150601f19603f3d011682016040523d82523d5f602084013e61096a565b606091505b505090508061098c5760405163397c7e8f60e21b815260040160405180910390fd5b5050505050565b61054a338383611026565b336001600160a01b037f000000000000000000000000000000000000000000000000000000000000000016146109e75760405163e866a4c560e01b815260040160405180910390fd5b805f03610a07576040516315e5f66f60e01b815260040160405180910390fd5b600955565b610a1784848461054e565b6105d6848484846110c4565b6060610a2e82610cb8565b505f8281526006602052604081208054610a479061191a565b80601f0160208091040260200160405190810160405280929190818152602001828054610a739061191a565b8015610abe5780601f10610a9557610100808354040283529160200191610abe565b820191905f5260205f20905b815481529060010190602001808311610aa157829003601f168201915b505050505090505f610ada60408051602081019091525f815290565b905080515f03610aeb575092915050565b815115610b1d578082604051602001610b0592919061199d565b60405160208183030381529060405292505050919050565b610b26846111e3565b949350505050565b60605f60075467ffffffffffffffff811115610b4c57610b4c611710565b604051908082528060200260200182016040528015610ba357816020015b6040805160a0810182525f808252602080830182905292820181905260608201819052608082015282525f19909201910181610b6a5790505b5090505f5b600754811015610c36575f818152600a6020908152604091829020825160a0810184528154815260018201546001600160a01b03908116938201939093526002820154909216928201929092526003820154606082015260049091015460ff16151560808201528251839083908110610c2357610c236119b1565b6020908102919091010152600101610ba8565b50919050565b6001600160a01b039182165f90815260056020908152604080832093909416825291909152205460ff1690565b5f6001600160e01b031982166380ac58cd60e01b1480610c9957506001600160e01b03198216635b5e139f60e01b145b8061048357506301ffc9a760e01b6001600160e01b0319831614610483565b5f818152600260205260408120546001600160a01b03168061048357604051637e27328960e01b815260048101849052602401610573565b6105f68383836001611253565b5f828152600260205260408120546001600160a01b0390811690831615610d2957610d29818486611357565b6001600160a01b03811615610d6357610d445f855f80611253565b6001600160a01b0381165f90815260036020526040902080545f190190555b6001600160a01b03851615610d91576001600160a01b0385165f908152600360205260409020805460010190555b5f8481526002602052604080822080546001600160a01b0319166001600160a01b0389811691821790925591518793918516917fddf252ad1be2c89b69c2b068fc378daa952ba7f163c4a11628f55a4df523b3ef91a4949350505050565b6001600160a01b038216610e1857604051633250574960e11b81525f6004820152602401610573565b5f610e2483835f610cfd565b90506001600160a01b038116610e5057604051637e27328960e01b815260048101839052602401610573565b836001600160a01b0316816001600160a01b0316146105d6576040516364283d7b60e01b81526001600160a01b0380861660048301526024820184905282166044820152606401610573565b6001600160a01b038216610ec557604051633250574960e11b81525f6004820152602401610573565b5f610ed183835f610cfd565b90506001600160a01b038116156105f6576040516339e3563760e11b81525f6004820152602401610573565b5f828152600660205260409020610f148282611a09565b506040518281527ff8e1a15aba9398e019f0b49df1a4fde98ee17ae345cb5f6b5e2c27f5033e8ce79060200160405180910390a15050565b6040805160a08101825283815230602080830182815233848601818152606086018881525f608088018181528b8252600a909652979097209551865591516001860180546001600160a01b03199081166001600160a01b0393841617909155925160028701805490941691161790915593516003840155516004909201805460ff191692151592909217909155610fe4919084610def565b604080518281525f60208201523391309185917fb640004f1d14576d0c209e240cad0410e0d8c0c33a09375861fbadae2588a98d910160405180910390a45050565b6001600160a01b03821661105857604051630b61174360e31b81526001600160a01b0383166004820152602401610573565b6001600160a01b038381165f81815260056020908152604080832094871680845294825291829020805460ff191686151590811790915591519182527f17307eab39ab6107e8899845ad3d59bd9653f200f220920489ca2b5937696c31910160405180910390a3505050565b6001600160a01b0383163b156105d657604051630a85bd0160e11b81526001600160a01b0384169063150b7a0290611106903390889087908790600401611ac9565b6020604051808303815f875af1925050508015611140575060408051601f3d908101601f1916820190925261113d91810190611b05565b60015b6111a7573d80801561116d576040519150601f19603f3d011682016040523d82523d5f602084013e611172565b606091505b5080515f0361119f57604051633250574960e11b81526001600160a01b0385166004820152602401610573565b805181602001fd5b6001600160e01b03198116630a85bd0160e11b1461098c57604051633250574960e11b81526001600160a01b0385166004820152602401610573565b60606111ee82610cb8565b505f61120460408051602081019091525f815290565b90505f8151116112225760405180602001604052805f8152506107a5565b8061122c846113bb565b60405160200161123d92919061199d565b6040516020818303038152906040529392505050565b808061126757506001600160a01b03821615155b15611328575f61127684610cb8565b90506001600160a01b038316158015906112a25750826001600160a01b0316816001600160a01b031614155b80156112b557506112b38184610c3c565b155b156112de5760405163a9fbf51f60e01b81526001600160a01b0384166004820152602401610573565b81156113265783856001600160a01b0316826001600160a01b03167f8c5be1e5ebec7d5bd14f71427d1e84f3dd0314c0f7b2291e5b200ac8c7c3b92560405160405180910390a45b505b50505f90815260046020526040902080546001600160a01b0319166001600160a01b0392909216919091179055565b61136283838361144b565b6105f6576001600160a01b03831661139057604051637e27328960e01b815260048101829052602401610573565b60405163177e802f60e01b81526001600160a01b038316600482015260248101829052604401610573565b60605f6113c7836114ac565b60010190505f8167ffffffffffffffff8111156113e6576113e6611710565b6040519080825280601f01601f191660200182016040528015611410576020820181803683370190505b5090508181016020015b5f19016f181899199a1a9b1b9c1cb0b131b232b360811b600a86061a8153600a850494508461141a57509392505050565b5f6001600160a01b03831615801590610b265750826001600160a01b0316846001600160a01b0316148061148457506114848484610c3c565b80610b265750505f908152600460205260409020546001600160a01b03908116911614919050565b5f8072184f03e93ff9f4daa797ed6e38ed64bf6a1f0160401b83106114ea5772184f03e93ff9f4daa797ed6e38ed64bf6a1f0160401b830492506040015b6d04ee2d6d415b85acef81000000008310611516576d04ee2d6d415b85acef8100000000830492506020015b662386f26fc10000831061153457662386f26fc10000830492506010015b6305f5e100831061154c576305f5e100830492506008015b612710831061156057612710830492506004015b60648310611572576064830492506002015b600a83106104835760010192915050565b6001600160e01b031981168114611598575f80fd5b50565b5f602082840312156115ab575f80fd5b81356107a581611583565b5f81518084528060208401602086015e5f602082860101526020601f19601f83011685010191505092915050565b602081525f6107a560208301846115b6565b5f60208284031215611606575f80fd5b5035919050565b80356001600160a01b0381168114611623575f80fd5b919050565b5f8060408385031215611639575f80fd5b6116428361160d565b946020939093013593505050565b805182526020808201516001600160a01b039081169184019190915260408083015190911690830152606080820151908301526080908101511515910152565b60a081016104838284611650565b5f805f606084860312156116b0575f80fd5b6116b98461160d565b92506116c76020850161160d565b9150604084013590509250925092565b5f80604083850312156116e8575f80fd5b50508035926020909101359150565b5f60208284031215611707575f80fd5b6107a58261160d565b634e487b7160e01b5f52604160045260245ffd5b5f67ffffffffffffffff8084111561173e5761173e611710565b604051601f8501601f19908116603f0116810190828211818310171561176657611766611710565b8160405280935085815286868601111561177e575f80fd5b858560208301375f602087830101525050509392505050565b5f80604083850312156117a8575f80fd5b823567ffffffffffffffff8111156117be575f80fd5b8301601f810185136117ce575f80fd5b6117dd85823560208401611724565b95602094909401359450505050565b5f80604083850312156117fd575f80fd5b6118068361160d565b91506020830135801515811461181a575f80fd5b809150509250929050565b5f805f8060808587031215611838575f80fd5b6118418561160d565b935061184f6020860161160d565b925060408501359150606085013567ffffffffffffffff811115611871575f80fd5b8501601f81018713611881575f80fd5b61189087823560208401611724565b91505092959194509250565b602080825282518282018190525f9190848201906040850190845b818110156118dd576118ca838551611650565b9284019260a092909201916001016118b7565b50909695505050505050565b5f80604083850312156118fa575f80fd5b6119038361160d565b91506119116020840161160d565b90509250929050565b600181811c9082168061192e57607f821691505b602082108103610c3657634e487b7160e01b5f52602260045260245ffd5b634e487b7160e01b5f52601160045260245ffd5b818103818111156104835761048361194c565b808201808211156104835761048361194c565b5f81518060208401855e5f93019283525090919050565b5f610b266119ab8386611986565b84611986565b634e487b7160e01b5f52603260045260245ffd5b601f8211156105f657805f5260205f20601f840160051c810160208510156119ea5750805b601f840160051c820191505b8181101561098c575f81556001016119f6565b815167ffffffffffffffff811115611a2357611a23611710565b611a3781611a31845461191a565b846119c5565b602080601f831160018114611a6a575f8415611a535750858301515b5f19600386901b1c1916600185901b178555611ac1565b5f85815260208120601f198616915b82811015611a9857888601518255948401946001909101908401611a79565b5085821015611ab557878501515f19600388901b60f8161c191681555b505060018460011b0185555b505050505050565b6001600160a01b03858116825284166020820152604081018390526080606082018190525f90611afb908301846115b6565b9695505050505050565b5f60208284031215611b15575f80fd5b81516107a58161158356fea2646970667358221220b2a14c5cba1b8cb00c3df7dd33c1be9cd95c65aa05e8509bfa54feaa98b582d564736f6c63430008190033",
    "sourcePath": "/Users/tarunangrish/Desktop/NFT-Marketplace/src/NFTMarketplace.sol",
    "compiler": {
        "name": "solc",
        "version": "0.8.25+commit.b61c2a91"
    },
    "functionHashes": {
        "approve(address,uint256)": "095ea7b3",
        "balanceOf(address)": "70a08231",
        "createToken(string,uint256)": "72b3b620",
        "executeSale(uint256)": "9b1225c4",
        "getAllNFTs()": "e0391b09",
        "getApproved(uint256)": "081812fc",
        "getCurrentTokenId()": "56189236",
        "getItemForTokenId(uint256)": "0979b754",
        "getItemsSold()": "c4b15141",
        "getListingPrice()": "12e85585",
        "isApprovedForAll(address,address)": "e985e9c5",
        "name()": "06fdde03",
        "ownerOf(uint256)": "6352211e",
        "reSellNft(uint256,uint256)": "6b51c171",
        "safeTransferFrom(address,address,uint256)": "42842e0e",
        "safeTransferFrom(address,address,uint256,bytes)": "b88d4fde",
        "setApprovalForAll(address,bool)": "a22cb465",
        "supportsInterface(bytes4)": "01ffc9a7",
        "symbol()": "95d89b41",
        "tokenURI(uint256)": "c87b56dd",
        "transferFrom(address,address,uint256)": "23b872dd",
        "updateListingPrice(uint256)": "ae677aa3"
    },
    "gasEstimates": {
        "creation": {
            "codeDepositCost": "1399600",
            "executionCost": "infinite",
            "totalCost": "infinite"
        },
        "external": {
            "approve(address,uint256)": "31531",
            "balanceOf(address)": "2608",
            "createToken(string,uint256)": "infinite",
            "executeSale(uint256)": "infinite",
            "getAllNFTs()": "infinite",
            "getApproved(uint256)": "infinite",
            "getCurrentTokenId()": "2380",
            "getItemForTokenId(uint256)": "11510",
            "getItemsSold()": "2357",
            "getListingPrice()": "2303",
            "isApprovedForAll(address,address)": "infinite",
            "name()": "infinite",
            "ownerOf(uint256)": "infinite",
            "reSellNft(uint256,uint256)": "201453",
            "safeTransferFrom(address,address,uint256)": "infinite",
            "safeTransferFrom(address,address,uint256,bytes)": "infinite",
            "setApprovalForAll(address,bool)": "26767",
            "supportsInterface(bytes4)": "infinite",
            "symbol()": "infinite",
            "tokenURI(uint256)": "infinite",
            "transferFrom(address,address,uint256)": "infinite",
            "updateListingPrice(uint256)": "infinite"
        },
        "internal": {
            "createMarketItem(uint256,uint256)": "infinite"
        }
    }
}